{"abi":[{"type":"constructor","inputs":[{"name":"admin","type":"address","internalType":"address"},{"name":"vrfCoordinator","type":"address","internalType":"address"},{"name":"_keyHash","type":"bytes32","internalType":"bytes32"},{"name":"_subscriptionId","type":"uint64","internalType":"uint64"},{"name":"_skinToken","type":"address","internalType":"address"},{"name":"_craftToken","type":"address","internalType":"address"}],"stateMutability":"nonpayable"},{"type":"function","name":"CALLBACK_GAS_LIMIT","inputs":[],"outputs":[{"name":"","type":"uint32","internalType":"uint32"}],"stateMutability":"view"},{"type":"function","name":"CASE_ADMIN_ROLE","inputs":[],"outputs":[{"name":"","type":"bytes32","internalType":"bytes32"}],"stateMutability":"view"},{"type":"function","name":"DEFAULT_ADMIN_ROLE","inputs":[],"outputs":[{"name":"","type":"bytes32","internalType":"bytes32"}],"stateMutability":"view"},{"type":"function","name":"NUM_WORDS","inputs":[],"outputs":[{"name":"","type":"uint32","internalType":"uint32"}],"stateMutability":"view"},{"type":"function","name":"REQUEST_CONFIRMATIONS","inputs":[],"outputs":[{"name":"","type":"uint16","internalType":"uint16"}],"stateMutability":"view"},{"type":"function","name":"cases","inputs":[{"name":"","type":"uint256","internalType":"uint256"}],"outputs":[{"name":"name","type":"string","internalType":"string"},{"name":"price","type":"uint256","internalType":"uint256"},{"name":"exists","type":"bool","internalType":"bool"}],"stateMutability":"view"},{"type":"function","name":"coordinator","inputs":[],"outputs":[{"name":"","type":"address","internalType":"contract VRFCoordinatorV2Interface"}],"stateMutability":"view"},{"type":"function","name":"craftToken","inputs":[],"outputs":[{"name":"","type":"address","internalType":"contract CraftToken"}],"stateMutability":"view"},{"type":"function","name":"createCase","inputs":[{"name":"name","type":"string","internalType":"string"},{"name":"price","type":"uint256","internalType":"uint256"},{"name":"skinIds","type":"uint256[]","internalType":"uint256[]"},{"name":"weights","type":"uint256[]","internalType":"uint256[]"}],"outputs":[{"name":"","type":"uint256","internalType":"uint256"}],"stateMutability":"nonpayable"},{"type":"function","name":"getCaseSkins","inputs":[{"name":"caseId","type":"uint256","internalType":"uint256"}],"outputs":[{"name":"","type":"uint256[]","internalType":"uint256[]"}],"stateMutability":"view"},{"type":"function","name":"getCaseWeights","inputs":[{"name":"caseId","type":"uint256","internalType":"uint256"}],"outputs":[{"name":"","type":"uint256[]","internalType":"uint256[]"}],"stateMutability":"view"},{"type":"function","name":"getRoleAdmin","inputs":[{"name":"role","type":"bytes32","internalType":"bytes32"}],"outputs":[{"name":"","type":"bytes32","internalType":"bytes32"}],"stateMutability":"view"},{"type":"function","name":"grantRole","inputs":[{"name":"role","type":"bytes32","internalType":"bytes32"},{"name":"account","type":"address","internalType":"address"}],"outputs":[],"stateMutability":"nonpayable"},{"type":"function","name":"hasRole","inputs":[{"name":"role","type":"bytes32","internalType":"bytes32"},{"name":"account","type":"address","internalType":"address"}],"outputs":[{"name":"","type":"bool","internalType":"bool"}],"stateMutability":"view"},{"type":"function","name":"keyHash","inputs":[],"outputs":[{"name":"","type":"bytes32","internalType":"bytes32"}],"stateMutability":"view"},{"type":"function","name":"nextCaseId","inputs":[],"outputs":[{"name":"","type":"uint256","internalType":"uint256"}],"stateMutability":"view"},{"type":"function","name":"openCase","inputs":[{"name":"caseId","type":"uint256","internalType":"uint256"}],"outputs":[{"name":"requestId","type":"uint256","internalType":"uint256"}],"stateMutability":"nonpayable"},{"type":"function","name":"openRequests","inputs":[{"name":"","type":"uint256","internalType":"uint256"}],"outputs":[{"name":"player","type":"address","internalType":"address"},{"name":"caseId","type":"uint256","internalType":"uint256"},{"name":"fulfilled","type":"bool","internalType":"bool"}],"stateMutability":"view"},{"type":"function","name":"rawFulfillRandomWords","inputs":[{"name":"requestId","type":"uint256","internalType":"uint256"},{"name":"randomWords","type":"uint256[]","internalType":"uint256[]"}],"outputs":[],"stateMutability":"nonpayable"},{"type":"function","name":"renounceRole","inputs":[{"name":"role","type":"bytes32","internalType":"bytes32"},{"name":"callerConfirmation","type":"address","internalType":"address"}],"outputs":[],"stateMutability":"nonpayable"},{"type":"function","name":"revokeRole","inputs":[{"name":"role","type":"bytes32","internalType":"bytes32"},{"name":"account","type":"address","internalType":"address"}],"outputs":[],"stateMutability":"nonpayable"},{"type":"function","name":"skinToken","inputs":[],"outputs":[{"name":"","type":"address","internalType":"contract SkinToken"}],"stateMutability":"view"},{"type":"function","name":"subscriptionId","inputs":[],"outputs":[{"name":"","type":"uint64","internalType":"uint64"}],"stateMutability":"view"},{"type":"function","name":"supportsInterface","inputs":[{"name":"interfaceId","type":"bytes4","internalType":"bytes4"}],"outputs":[{"name":"","type":"bool","internalType":"bool"}],"stateMutability":"view"},{"type":"event","name":"CaseCreated","inputs":[{"name":"caseId","type":"uint256","indexed":true,"internalType":"uint256"},{"name":"name","type":"string","indexed":false,"internalType":"string"},{"name":"price","type":"uint256","indexed":false,"internalType":"uint256"}],"anonymous":false},{"type":"event","name":"CaseOpenRequested","inputs":[{"name":"requestId","type":"uint256","indexed":true,"internalType":"uint256"},{"name":"player","type":"address","indexed":true,"internalType":"address"},{"name":"caseId","type":"uint256","indexed":false,"internalType":"uint256"}],"anonymous":false},{"type":"event","name":"CaseOpened","inputs":[{"name":"requestId","type":"uint256","indexed":true,"internalType":"uint256"},{"name":"player","type":"address","indexed":true,"internalType":"address"},{"name":"skinId","type":"uint256","indexed":false,"internalType":"uint256"}],"anonymous":false},{"type":"event","name":"RoleAdminChanged","inputs":[{"name":"role","type":"bytes32","indexed":true,"internalType":"bytes32"},{"name":"previousAdminRole","type":"bytes32","indexed":true,"internalType":"bytes32"},{"name":"newAdminRole","type":"bytes32","indexed":true,"internalType":"bytes32"}],"anonymous":false},{"type":"event","name":"RoleGranted","inputs":[{"name":"role","type":"bytes32","indexed":true,"internalType":"bytes32"},{"name":"account","type":"address","indexed":true,"internalType":"address"},{"name":"sender","type":"address","indexed":true,"internalType":"address"}],"anonymous":false},{"type":"event","name":"RoleRevoked","inputs":[{"name":"role","type":"bytes32","indexed":true,"internalType":"bytes32"},{"name":"account","type":"address","indexed":true,"internalType":"address"},{"name":"sender","type":"address","indexed":true,"internalType":"address"}],"anonymous":false},{"type":"error","name":"AccessControlBadConfirmation","inputs":[]},{"type":"error","name":"AccessControlUnauthorizedAccount","inputs":[{"name":"account","type":"address","internalType":"address"},{"name":"neededRole","type":"bytes32","internalType":"bytes32"}]},{"type":"error","name":"OnlyCoordinatorCanFulfill","inputs":[{"name":"have","type":"address","internalType":"address"},{"name":"want","type":"address","internalType":"address"}]},{"type":"error","name":"ReentrancyGuardReentrantCall","inputs":[]}],"bytecode":{"object":"0x61014060405234801562000011575f80fd5b5060405162001e7938038062001e798339810160408190526200003491620004e8565b6001600160a01b03858116608081905260017f9b779b17422d0df92223018b32b4d1fa46e071723d6817e2486d003becc55f005560a05260c08590526001600160401b03841660e05282811661010052811661012052620000965f876200022f565b50620000c37fd8d8abac47b7cf7a8178a25a7f1372aa00dbd3de1653583b08bd332b3e66cf45876200022f565b50604080516003808252608082019092525f91602082016060803683370190505090505f815f81518110620000fc57620000fc6200057d565b6020026020010181815250506003816001815181106200012057620001206200057d565b6020026020010181815250506001816002815181106200014457620001446200057d565b6020908102919091010152604080516003808252608082019092525f918160200160208202803683370190505090506046815f815181106200018a576200018a6200057d565b602002602001018181525050601981600181518110620001ae57620001ae6200057d565b602002602001018181525050600581600281518110620001d257620001d26200057d565b602002602001018181525050620002206040518060400160405280600d81526020016c4672616374757265204361736560981b81525068056bc75e2d631000008484620002db60201b60201c565b50505050505050505062000760565b5f828152602081815260408083206001600160a01b038516845290915281205460ff16620002d2575f838152602081815260408083206001600160a01b03861684529091529020805460ff19166001179055620002893390565b6001600160a01b0316826001600160a01b0316847f2f8788117e7eff1d82e926ec794901d17c78024a50270940304540a733656f0d60405160405180910390a4506001620002d5565b505f5b92915050565b5f8151835114620003255760405162461bcd60e51b815260206004820152600f60248201526e098cadccee8d040dad2e6dac2e8c6d608b1b60448201526064015b60405180910390fd5b5f835111620003625760405162461bcd60e51b81526020600482015260086024820152674e6f20736b696e7360c01b60448201526064016200031c565b600280545f9182620003748362000591565b909155506040805160a0810182528881526020808201899052818301889052606082018790526001608083018190525f858152915291909120815192935090918190620003c2908262000640565b50602082810151600183015560408301518051620003e7926002850192019062000468565b50606082015180516200040591600384019160209091019062000468565b50608091909101516004909101805460ff191691151591909117905560405181907fd904444d665098d4a571393e9f8c559e3846d0da99d10a5056466b8665d98823906200045790899089906200070c565b60405180910390a295945050505050565b828054828255905f5260205f20908101928215620004a4579160200282015b82811115620004a457825182559160200191906001019062000487565b50620004b2929150620004b6565b5090565b5b80821115620004b2575f8155600101620004b7565b80516001600160a01b0381168114620004e3575f80fd5b919050565b5f805f805f8060c08789031215620004fe575f80fd5b6200050987620004cc565b95506200051960208801620004cc565b6040880151606089015191965094506001600160401b03811681146200053d575f80fd5b92506200054d60808801620004cc565b91506200055d60a08801620004cc565b90509295509295509295565b634e487b7160e01b5f52604160045260245ffd5b634e487b7160e01b5f52603260045260245ffd5b5f60018201620005af57634e487b7160e01b5f52601160045260245ffd5b5060010190565b600181811c90821680620005cb57607f821691505b602082108103620005ea57634e487b7160e01b5f52602260045260245ffd5b50919050565b601f8211156200063b57805f5260205f20601f840160051c81016020851015620006175750805b601f840160051c820191505b8181101562000638575f815560010162000623565b50505b505050565b81516001600160401b038111156200065c576200065c62000569565b62000674816200066d8454620005b6565b84620005f0565b602080601f831160018114620006aa575f8415620006925750858301515b5f19600386901b1c1916600185901b17855562000704565b5f85815260208120601f198616915b82811015620006da57888601518255948401946001909101908401620006b9565b5085821015620006f857878501515f19600388901b60f8161c191681555b505060018460011b0185555b505050505050565b604081525f83518060408401525f5b818110156200073a57602081870181015160608684010152016200071b565b505f606082850101526060601f19601f8301168401019150508260208301529392505050565b60805160a05160c05160e05161010051610120516116a0620007d95f395f8181610367015281816105f901526106da01525f81816104030152610c5401525f81816101a4015261077501525f81816102fa015261074601525f81816101e401526107b301525f81816104fd015261053f01526116a05ff3fe608060405234801561000f575f80fd5b5060043610610153575f3560e01c806361728f39116100bf578063b59a4e2611610079578063b59a4e2614610362578063cd1a44db14610389578063d547741f146103eb578063e325bfd1146103fe578063eef9050514610425578063f09790dd14610438575f80fd5b806361728f39146102f55780636350eae81461031c57806367f082b01461032557806372cf6e341461034057806391d1485414610348578063a217fddf1461035b575f80fd5b8063248a9ca311610110578063248a9ca3146102545780632f2ff15d1461027657806333d608f11461028957806336568abe146102a8578063510fb3fe146102bb57806352d63742146102ce575f80fd5b806301ffc9a71461015757806305b2090a1461017f57806309c1ba2e1461019f5780630a009097146101df5780631fe543e31461021e5780632073b17c14610233575b5f80fd5b61016a61016536600461116b565b61045a565b60405190151581526020015b60405180910390f35b61019261018d366004611199565b610490565b60405161017691906111b0565b6101c67f000000000000000000000000000000000000000000000000000000000000000081565b60405167ffffffffffffffff9091168152602001610176565b6102067f000000000000000000000000000000000000000000000000000000000000000081565b6040516001600160a01b039091168152602001610176565b61023161022c366004611207565b6104f2565b005b610246610241366004611199565b61057f565b604051908152602001610176565b610246610262366004611199565b5f9081526020819052604090206001015490565b6102316102843660046112cc565b6108ee565b61029362030d4081565b60405163ffffffff9091168152602001610176565b6102316102b63660046112cc565b610918565b6102466102c936600461134d565b610950565b6102467fd8d8abac47b7cf7a8178a25a7f1372aa00dbd3de1653583b08bd332b3e66cf4581565b6102467f000000000000000000000000000000000000000000000000000000000000000081565b61024660025481565b61032d600381565b60405161ffff9091168152602001610176565b610293600181565b61016a6103563660046112cc565b610a29565b6102465f81565b6102067f000000000000000000000000000000000000000000000000000000000000000081565b6103c4610397366004611199565b60036020525f90815260409020805460018201546002909201546001600160a01b03909116919060ff1683565b604080516001600160a01b0390941684526020840192909252151590820152606001610176565b6102316103f93660046112cc565b610a51565b6102067f000000000000000000000000000000000000000000000000000000000000000081565b610192610433366004611199565b610a75565b61044b610446366004611199565b610ad5565b60405161017693929190611454565b5f6001600160e01b03198216637965db0b60e01b148061048a57506301ffc9a760e01b6001600160e01b03198316145b92915050565b5f818152600160209081526040918290206003018054835181840281018401909452808452606093928301828280156104e657602002820191905f5260205f20905b8154815260200190600101908083116104d2575b50505050509050919050565b336001600160a01b037f000000000000000000000000000000000000000000000000000000000000000016146105715760405163073e64fd60e21b81523360048201526001600160a01b037f00000000000000000000000000000000000000000000000000000000000000001660248201526044015b60405180910390fd5b61057b8282610b80565b5050565b5f610588610cf5565b5f828152600160205260409020600481015460ff166105df5760405162461bcd60e51b815260206004820152601360248201527210d85cd948191bd95cc81b9bdd08195e1a5cdd606a1b6044820152606401610568565b60018101546040516370a0823160e01b81523360048201527f00000000000000000000000000000000000000000000000000000000000000006001600160a01b0316906370a0823190602401602060405180830381865afa158015610646573d5f803e3d5ffd5b505050506040513d601f19601f8201168201806040525081019061066a919061147d565b10156106b85760405162461bcd60e51b815260206004820152601a60248201527f496e73756666696369656e742043524146542062616c616e63650000000000006044820152606401610568565b600181015460405163079cc67960e41b815233600482015260248101919091527f00000000000000000000000000000000000000000000000000000000000000006001600160a01b0316906379cc6790906044015f604051808303815f87803b158015610723575f80fd5b505af1158015610735573d5f803e3d5ffd5b50506040516305d3b1d360e41b81527f0000000000000000000000000000000000000000000000000000000000000000600482015267ffffffffffffffff7f00000000000000000000000000000000000000000000000000000000000000001660248201526003604482015262030d406064820152600160848201527f00000000000000000000000000000000000000000000000000000000000000006001600160a01b03169250635d3b1d30915060a4016020604051808303815f875af1158015610803573d5f803e3d5ffd5b505050506040513d601f19601f82011682018060405250810190610827919061147d565b604080516060810182523380825260208083018881525f8486018181528782526003845290869020945185546001600160a01b0319166001600160a01b0390911617855590516001850155516002909301805460ff1916931515939093179092559151868152929450909184917f7e62936ec8daecf290919d65d61b9fd6dfa08a329c84cdb3931fb02eb11c28dc910160405180910390a3506108e960017f9b779b17422d0df92223018b32b4d1fa46e071723d6817e2486d003becc55f0055565b919050565b5f8281526020819052604090206001015461090881610d23565b6109128383610d30565b50505050565b6001600160a01b03811633146109415760405163334bd91960e11b815260040160405180910390fd5b61094b8282610dbf565b505050565b5f7fd8d8abac47b7cf7a8178a25a7f1372aa00dbd3de1653583b08bd332b3e66cf4561097b81610d23565b610a1c89898080601f0160208091040260200160405190810160405280939291908181526020018383808284375f9201919091525050604080516020808c0282810182019093528b82528d94509092508b918b918291908501908490808284375f9201919091525050604080516020808c0282810182019093528b82529093508b92508a9182918501908490808284375f92019190915250610e2892505050565b9998505050505050505050565b5f918252602082815260408084206001600160a01b0393909316845291905290205460ff1690565b5f82815260208190526040902060010154610a6b81610d23565b6109128383610dbf565b5f818152600160209081526040918290206002018054835181840281018401909452808452606093928301828280156104e657602002820191905f5260205f20908154815260200190600101908083116104d25750505050509050919050565b60016020525f9081526040902080548190610aef90611494565b80601f0160208091040260200160405190810160405280929190818152602001828054610b1b90611494565b8015610b665780601f10610b3d57610100808354040283529160200191610b66565b820191905f5260205f20905b815481529060010190602001808311610b4957829003601f168201915b50505050600183015460049093015491929160ff16905083565b5f828152600360205260409020600281015460ff1615610bd65760405162461bcd60e51b8152602060048201526011602482015270105b1c9958591e48199d5b199a5b1b1959607a1b6044820152606401610568565b60028101805460ff19166001908117909155818101545f908152602091909152604081208351909190610c2290839086908490610c1557610c156114cc565b6020026020010151610fa3565b8354604051630ab714fb60e11b81526001600160a01b03918216600482015260248101839052600160448201529192507f0000000000000000000000000000000000000000000000000000000000000000169063156e29f6906064015f604051808303815f87803b158015610c95575f80fd5b505af1158015610ca7573d5f803e3d5ffd5b505084546040518481526001600160a01b0390911692508791507fac33c4c92297c2485bc9a6535c37ae0d6734c1f9a3a4b8b9299fd6f86219bf2b9060200160405180910390a35050505050565b610cfd611091565b60027f9b779b17422d0df92223018b32b4d1fa46e071723d6817e2486d003becc55f0055565b610d2d81336110d5565b50565b5f610d3b8383610a29565b610db8575f838152602081815260408083206001600160a01b03861684529091529020805460ff19166001179055610d703390565b6001600160a01b0316826001600160a01b0316847f2f8788117e7eff1d82e926ec794901d17c78024a50270940304540a733656f0d60405160405180910390a450600161048a565b505f61048a565b5f610dca8383610a29565b15610db8575f838152602081815260408083206001600160a01b0386168085529252808320805460ff1916905551339286917ff6391f5c32d9c69d2a47ea670b442974b53935d1edc7fd64eb21e047a839171b9190a450600161048a565b5f8151835114610e6c5760405162461bcd60e51b815260206004820152600f60248201526e098cadccee8d040dad2e6dac2e8c6d608b1b6044820152606401610568565b5f835111610ea75760405162461bcd60e51b81526020600482015260086024820152674e6f20736b696e7360c01b6044820152606401610568565b600280545f9182610eb7836114f4565b909155506040805160a0810182528881526020808201899052818301889052606082018790526001608083018190525f858152915291909120815192935090918190610f039082611557565b50602082810151600183015560408301518051610f26926002850192019061110e565b5060608201518051610f4291600384019160209091019061110e565b50608091909101516004909101805460ff191691151591909117905560405181907fd904444d665098d4a571393e9f8c559e3846d0da99d10a5056466b8665d9882390610f929089908990611617565b60405180910390a295945050505050565b5f805f5b6003850154811015610fe657846003018181548110610fc857610fc86114cc565b905f5260205f20015482610fdc9190611638565b9150600101610fa7565b505f610ff2828561164b565b90505f805b600287015481101561106757866003018181548110611018576110186114cc565b905f5260205f2001548261102c9190611638565b91508183101561105f5786600201818154811061104b5761104b6114cc565b905f5260205f20015494505050505061048a565b600101610ff7565b50856002015f8154811061107d5761107d6114cc565b905f5260205f200154935050505092915050565b7f9b779b17422d0df92223018b32b4d1fa46e071723d6817e2486d003becc55f00546002036110d357604051633ee5aeb560e01b815260040160405180910390fd5b565b6110df8282610a29565b61057b5760405163e2517d3f60e01b81526001600160a01b038216600482015260248101839052604401610568565b828054828255905f5260205f20908101928215611147579160200282015b8281111561114757825182559160200191906001019061112c565b50611153929150611157565b5090565b5b80821115611153575f8155600101611158565b5f6020828403121561117b575f80fd5b81356001600160e01b031981168114611192575f80fd5b9392505050565b5f602082840312156111a9575f80fd5b5035919050565b602080825282518282018190525f9190848201906040850190845b818110156111e7578351835292840192918401916001016111cb565b50909695505050505050565b634e487b7160e01b5f52604160045260245ffd5b5f8060408385031215611218575f80fd5b8235915060208084013567ffffffffffffffff80821115611237575f80fd5b818601915086601f83011261124a575f80fd5b81358181111561125c5761125c6111f3565b8060051b604051601f19603f83011681018181108582111715611281576112816111f3565b60405291825284820192508381018501918983111561129e575f80fd5b938501935b828510156112bc578435845293850193928501926112a3565b8096505050505050509250929050565b5f80604083850312156112dd575f80fd5b8235915060208301356001600160a01b03811681146112fa575f80fd5b809150509250929050565b5f8083601f840112611315575f80fd5b50813567ffffffffffffffff81111561132c575f80fd5b6020830191508360208260051b8501011115611346575f80fd5b9250929050565b5f805f805f805f6080888a031215611363575f80fd5b873567ffffffffffffffff8082111561137a575f80fd5b818a0191508a601f83011261138d575f80fd5b81358181111561139b575f80fd5b8b60208285010111156113ac575f80fd5b602092830199509750908901359550604089013590808211156113cd575f80fd5b6113d98b838c01611305565b909650945060608a01359150808211156113f1575f80fd5b506113fe8a828b01611305565b989b979a50959850939692959293505050565b5f81518084525f5b8181101561143557602081850181015186830182015201611419565b505f602082860101526020601f19601f83011685010191505092915050565b606081525f6114666060830186611411565b602083019490945250901515604090910152919050565b5f6020828403121561148d575f80fd5b5051919050565b600181811c908216806114a857607f821691505b6020821081036114c657634e487b7160e01b5f52602260045260245ffd5b50919050565b634e487b7160e01b5f52603260045260245ffd5b634e487b7160e01b5f52601160045260245ffd5b5f60018201611505576115056114e0565b5060010190565b601f82111561094b57805f5260205f20601f840160051c810160208510156115315750805b601f840160051c820191505b81811015611550575f815560010161153d565b5050505050565b815167ffffffffffffffff811115611571576115716111f3565b6115858161157f8454611494565b8461150c565b602080601f8311600181146115b8575f84156115a15750858301515b5f19600386901b1c1916600185901b17855561160f565b5f85815260208120601f198616915b828110156115e6578886015182559484019460019091019084016115c7565b508582101561160357878501515f19600388901b60f8161c191681555b505060018460011b0185555b505050505050565b604081525f6116296040830185611411565b90508260208301529392505050565b8082018082111561048a5761048a6114e0565b5f8261166557634e487b7160e01b5f52601260045260245ffd5b50069056fea2646970667358221220a22181c907867a3a8f22189917216141d2047b55f66d0d6d81e528fbd0be6ba064736f6c63430008180033","linkReferences":{}},"methodIdentifiers":{"CALLBACK_GAS_LIMIT()":"33d608f1","CASE_ADMIN_ROLE()":"52d63742","DEFAULT_ADMIN_ROLE()":"a217fddf","NUM_WORDS()":"72cf6e34","REQUEST_CONFIRMATIONS()":"67f082b0","cases(uint256)":"f09790dd","coordinator()":"0a009097","craftToken()":"b59a4e26","createCase(string,uint256,uint256[],uint256[])":"510fb3fe","getCaseSkins(uint256)":"eef90505","getCaseWeights(uint256)":"05b2090a","getRoleAdmin(bytes32)":"248a9ca3","grantRole(bytes32,address)":"2f2ff15d","hasRole(bytes32,address)":"91d14854","keyHash()":"61728f39","nextCaseId()":"6350eae8","openCase(uint256)":"2073b17c","openRequests(uint256)":"cd1a44db","rawFulfillRandomWords(uint256,uint256[])":"1fe543e3","renounceRole(bytes32,address)":"36568abe","revokeRole(bytes32,address)":"d547741f","skinToken()":"e325bfd1","subscriptionId()":"09c1ba2e","supportsInterface(bytes4)":"01ffc9a7"},"id":63}