{"abi":[{"type":"constructor","inputs":[{"name":"admin","type":"address","internalType":"address"},{"name":"_tokenA","type":"address","internalType":"address"},{"name":"_tokenB","type":"address","internalType":"address"}],"stateMutability":"nonpayable"},{"type":"function","name":"AMM_ADMIN_ROLE","inputs":[],"outputs":[{"name":"","type":"bytes32","internalType":"bytes32"}],"stateMutability":"view"},{"type":"function","name":"DEFAULT_ADMIN_ROLE","inputs":[],"outputs":[{"name":"","type":"bytes32","internalType":"bytes32"}],"stateMutability":"view"},{"type":"function","name":"FEE_DENOMINATOR","inputs":[],"outputs":[{"name":"","type":"uint256","internalType":"uint256"}],"stateMutability":"view"},{"type":"function","name":"FEE_NUMERATOR","inputs":[],"outputs":[{"name":"","type":"uint256","internalType":"uint256"}],"stateMutability":"view"},{"type":"function","name":"MINIMUM_LIQUIDITY","inputs":[],"outputs":[{"name":"","type":"uint256","internalType":"uint256"}],"stateMutability":"view"},{"type":"function","name":"addLiquidity","inputs":[{"name":"amountA","type":"uint256","internalType":"uint256"},{"name":"amountB","type":"uint256","internalType":"uint256"},{"name":"minLpTokens","type":"uint256","internalType":"uint256"}],"outputs":[{"name":"lpTokens","type":"uint256","internalType":"uint256"}],"stateMutability":"nonpayable"},{"type":"function","name":"allowance","inputs":[{"name":"owner","type":"address","internalType":"address"},{"name":"spender","type":"address","internalType":"address"}],"outputs":[{"name":"","type":"uint256","internalType":"uint256"}],"stateMutability":"view"},{"type":"function","name":"approve","inputs":[{"name":"spender","type":"address","internalType":"address"},{"name":"value","type":"uint256","internalType":"uint256"}],"outputs":[{"name":"","type":"bool","internalType":"bool"}],"stateMutability":"nonpayable"},{"type":"function","name":"balanceOf","inputs":[{"name":"account","type":"address","internalType":"address"}],"outputs":[{"name":"","type":"uint256","internalType":"uint256"}],"stateMutability":"view"},{"type":"function","name":"decimals","inputs":[],"outputs":[{"name":"","type":"uint8","internalType":"uint8"}],"stateMutability":"view"},{"type":"function","name":"getAmountOutAforB","inputs":[{"name":"amountIn","type":"uint256","internalType":"uint256"}],"outputs":[{"name":"","type":"uint256","internalType":"uint256"}],"stateMutability":"view"},{"type":"function","name":"getAmountOutBforA","inputs":[{"name":"amountIn","type":"uint256","internalType":"uint256"}],"outputs":[{"name":"","type":"uint256","internalType":"uint256"}],"stateMutability":"view"},{"type":"function","name":"getRoleAdmin","inputs":[{"name":"role","type":"bytes32","internalType":"bytes32"}],"outputs":[{"name":"","type":"bytes32","internalType":"bytes32"}],"stateMutability":"view"},{"type":"function","name":"grantRole","inputs":[{"name":"role","type":"bytes32","internalType":"bytes32"},{"name":"account","type":"address","internalType":"address"}],"outputs":[],"stateMutability":"nonpayable"},{"type":"function","name":"hasRole","inputs":[{"name":"role","type":"bytes32","internalType":"bytes32"},{"name":"account","type":"address","internalType":"address"}],"outputs":[{"name":"","type":"bool","internalType":"bool"}],"stateMutability":"view"},{"type":"function","name":"name","inputs":[],"outputs":[{"name":"","type":"string","internalType":"string"}],"stateMutability":"view"},{"type":"function","name":"removeLiquidity","inputs":[{"name":"lpTokens","type":"uint256","internalType":"uint256"},{"name":"minAmountA","type":"uint256","internalType":"uint256"},{"name":"minAmountB","type":"uint256","internalType":"uint256"}],"outputs":[{"name":"amountA","type":"uint256","internalType":"uint256"},{"name":"amountB","type":"uint256","internalType":"uint256"}],"stateMutability":"nonpayable"},{"type":"function","name":"renounceRole","inputs":[{"name":"role","type":"bytes32","internalType":"bytes32"},{"name":"callerConfirmation","type":"address","internalType":"address"}],"outputs":[],"stateMutability":"nonpayable"},{"type":"function","name":"reserveA","inputs":[],"outputs":[{"name":"","type":"uint256","internalType":"uint256"}],"stateMutability":"view"},{"type":"function","name":"reserveB","inputs":[],"outputs":[{"name":"","type":"uint256","internalType":"uint256"}],"stateMutability":"view"},{"type":"function","name":"revokeRole","inputs":[{"name":"role","type":"bytes32","internalType":"bytes32"},{"name":"account","type":"address","internalType":"address"}],"outputs":[],"stateMutability":"nonpayable"},{"type":"function","name":"supportsInterface","inputs":[{"name":"interfaceId","type":"bytes4","internalType":"bytes4"}],"outputs":[{"name":"","type":"bool","internalType":"bool"}],"stateMutability":"view"},{"type":"function","name":"swapAforB","inputs":[{"name":"amountIn","type":"uint256","internalType":"uint256"},{"name":"minAmountOut","type":"uint256","internalType":"uint256"}],"outputs":[{"name":"amountOut","type":"uint256","internalType":"uint256"}],"stateMutability":"nonpayable"},{"type":"function","name":"swapBforA","inputs":[{"name":"amountIn","type":"uint256","internalType":"uint256"},{"name":"minAmountOut","type":"uint256","internalType":"uint256"}],"outputs":[{"name":"amountOut","type":"uint256","internalType":"uint256"}],"stateMutability":"nonpayable"},{"type":"function","name":"symbol","inputs":[],"outputs":[{"name":"","type":"string","internalType":"string"}],"stateMutability":"view"},{"type":"function","name":"tokenA","inputs":[],"outputs":[{"name":"","type":"address","internalType":"contract IERC20"}],"stateMutability":"view"},{"type":"function","name":"tokenB","inputs":[],"outputs":[{"name":"","type":"address","internalType":"contract IERC20"}],"stateMutability":"view"},{"type":"function","name":"totalSupply","inputs":[],"outputs":[{"name":"","type":"uint256","internalType":"uint256"}],"stateMutability":"view"},{"type":"function","name":"transfer","inputs":[{"name":"to","type":"address","internalType":"address"},{"name":"value","type":"uint256","internalType":"uint256"}],"outputs":[{"name":"","type":"bool","internalType":"bool"}],"stateMutability":"nonpayable"},{"type":"function","name":"transferFrom","inputs":[{"name":"from","type":"address","internalType":"address"},{"name":"to","type":"address","internalType":"address"},{"name":"value","type":"uint256","internalType":"uint256"}],"outputs":[{"name":"","type":"bool","internalType":"bool"}],"stateMutability":"nonpayable"},{"type":"event","name":"Approval","inputs":[{"name":"owner","type":"address","indexed":true,"internalType":"address"},{"name":"spender","type":"address","indexed":true,"internalType":"address"},{"name":"value","type":"uint256","indexed":false,"internalType":"uint256"}],"anonymous":false},{"type":"event","name":"LiquidityAdded","inputs":[{"name":"provider","type":"address","indexed":true,"internalType":"address"},{"name":"amountA","type":"uint256","indexed":false,"internalType":"uint256"},{"name":"amountB","type":"uint256","indexed":false,"internalType":"uint256"},{"name":"lpTokens","type":"uint256","indexed":false,"internalType":"uint256"}],"anonymous":false},{"type":"event","name":"LiquidityRemoved","inputs":[{"name":"provider","type":"address","indexed":true,"internalType":"address"},{"name":"amountA","type":"uint256","indexed":false,"internalType":"uint256"},{"name":"amountB","type":"uint256","indexed":false,"internalType":"uint256"},{"name":"lpTokens","type":"uint256","indexed":false,"internalType":"uint256"}],"anonymous":false},{"type":"event","name":"RoleAdminChanged","inputs":[{"name":"role","type":"bytes32","indexed":true,"internalType":"bytes32"},{"name":"previousAdminRole","type":"bytes32","indexed":true,"internalType":"bytes32"},{"name":"newAdminRole","type":"bytes32","indexed":true,"internalType":"bytes32"}],"anonymous":false},{"type":"event","name":"RoleGranted","inputs":[{"name":"role","type":"bytes32","indexed":true,"internalType":"bytes32"},{"name":"account","type":"address","indexed":true,"internalType":"address"},{"name":"sender","type":"address","indexed":true,"internalType":"address"}],"anonymous":false},{"type":"event","name":"RoleRevoked","inputs":[{"name":"role","type":"bytes32","indexed":true,"internalType":"bytes32"},{"name":"account","type":"address","indexed":true,"internalType":"address"},{"name":"sender","type":"address","indexed":true,"internalType":"address"}],"anonymous":false},{"type":"event","name":"Swap","inputs":[{"name":"user","type":"address","indexed":true,"internalType":"address"},{"name":"tokenIn","type":"address","indexed":false,"internalType":"address"},{"name":"amountIn","type":"uint256","indexed":false,"internalType":"uint256"},{"name":"amountOut","type":"uint256","indexed":false,"internalType":"uint256"}],"anonymous":false},{"type":"event","name":"Transfer","inputs":[{"name":"from","type":"address","indexed":true,"internalType":"address"},{"name":"to","type":"address","indexed":true,"internalType":"address"},{"name":"value","type":"uint256","indexed":false,"internalType":"uint256"}],"anonymous":false},{"type":"error","name":"AccessControlBadConfirmation","inputs":[]},{"type":"error","name":"AccessControlUnauthorizedAccount","inputs":[{"name":"account","type":"address","internalType":"address"},{"name":"neededRole","type":"bytes32","internalType":"bytes32"}]},{"type":"error","name":"ERC20InsufficientAllowance","inputs":[{"name":"spender","type":"address","internalType":"address"},{"name":"allowance","type":"uint256","internalType":"uint256"},{"name":"needed","type":"uint256","internalType":"uint256"}]},{"type":"error","name":"ERC20InsufficientBalance","inputs":[{"name":"sender","type":"address","internalType":"address"},{"name":"balance","type":"uint256","internalType":"uint256"},{"name":"needed","type":"uint256","internalType":"uint256"}]},{"type":"error","name":"ERC20InvalidApprover","inputs":[{"name":"approver","type":"address","internalType":"address"}]},{"type":"error","name":"ERC20InvalidReceiver","inputs":[{"name":"receiver","type":"address","internalType":"address"}]},{"type":"error","name":"ERC20InvalidSender","inputs":[{"name":"sender","type":"address","internalType":"address"}]},{"type":"error","name":"ERC20InvalidSpender","inputs":[{"name":"spender","type":"address","internalType":"address"}]},{"type":"error","name":"ReentrancyGuardReentrantCall","inputs":[]},{"type":"error","name":"SafeERC20FailedOperation","inputs":[{"name":"token","type":"address","internalType":"address"}]}],"bytecode":{"object":"0x60c060405234801562000010575f80fd5b5060405162001d0538038062001d058339810160408190526200003391620001f6565b6040518060400160405280600d81526020016c0536b696e4d61726b6574204c5609c1b815250604051806040016040528060048152602001630534d4c560e41b8152508160039081620000879190620002db565b506004620000968282620002db565b5050506001620000b2620000af6200010660201b60201c565b90565b55620000bf5f846200012a565b50620000ec7fb8cf4d34f28c31ca1f2dbc54a29ac1902689c7b9d3a10431f26623c580868d5a846200012a565b506001600160a01b039182166080521660a05250620003a7565b7f9b779b17422d0df92223018b32b4d1fa46e071723d6817e2486d003becc55f0090565b5f8281526005602090815260408083206001600160a01b038516845290915281205460ff16620001d1575f8381526005602090815260408083206001600160a01b03861684529091529020805460ff19166001179055620001883390565b6001600160a01b0316826001600160a01b0316847f2f8788117e7eff1d82e926ec794901d17c78024a50270940304540a733656f0d60405160405180910390a4506001620001d4565b505f5b92915050565b80516001600160a01b0381168114620001f1575f80fd5b919050565b5f805f6060848603121562000209575f80fd5b6200021484620001da565b92506200022460208501620001da565b91506200023460408501620001da565b90509250925092565b634e487b7160e01b5f52604160045260245ffd5b600181811c908216806200026657607f821691505b6020821081036200028557634e487b7160e01b5f52602260045260245ffd5b50919050565b601f821115620002d657805f5260205f20601f840160051c81016020851015620002b25750805b601f840160051c820191505b81811015620002d3575f8155600101620002be565b50505b505050565b81516001600160401b03811115620002f757620002f76200023d565b6200030f8162000308845462000251565b846200028b565b602080601f83116001811462000345575f84156200032d5750858301515b5f19600386901b1c1916600185901b1785556200039f565b5f85815260208120601f198616915b82811015620003755788860151825594840194600190910190840162000354565b50858210156200039357878501515f19600388901b60f8161c191681555b505060018460011b0185555b505050505050565b60805160a0516118e86200041d5f395f81816103490152818161065d0152818161083201528181610b3a01528181610ce601528181610d770152610fa601525f818161024b01528181610628015281816106b9015281816107fd01528181610b0601528181610d1b0152610f1d01526118e85ff3fe608060405234801561000f575f80fd5b50600436106101d1575f3560e01c8063422f1043116100fe578063a9059cbb1161009e578063d73792a91161006e578063d73792a9146103f0578063dc5fa6c51461041f578063dd62ed3e14610428578063ee72144a14610460575f80fd5b8063a9059cbb146103dd578063ba9a7a56146103f0578063c915cc24146103f9578063d547741f1461040c575f80fd5b8063857620e1116100d9578063857620e11461039357806391d14854146103bb57806395d89b41146103ce578063a217fddf146103d6575f80fd5b8063422f1043146103315780635f64b55b1461034457806370a082311461036b575f80fd5b806319e36f3b116101745780632f2ff15d116101445780632f2ff15d146102f1578063313ce5671461030657806336568abe1461031557806341cd47bf14610328575f80fd5b806319e36f3b146102a0578063234e85c6146102a957806323b872dd146102bc578063248a9ca3146102cf575f80fd5b80630e6a22b0116101af5780630e6a22b0146102255780630fc63d1014610246578063140e62471461028557806318160ddd14610298575f80fd5b806301ffc9a7146101d557806306fdde03146101fd578063095ea7b314610212575b5f80fd5b6101e86101e33660046115dd565b610487565b60405190151581526020015b60405180910390f35b610205610497565b6040516101f49190611604565b6101e8610220366004611666565b610527565b61023861023336600461168e565b61053e565b6040519081526020016101f4565b61026d7f000000000000000000000000000000000000000000000000000000000000000081565b6040516001600160a01b0390911681526020016101f4565b6102386102933660046116a5565b61054e565b600254610238565b61023860075481565b6102386102b736600461168e565b610707565b6101e86102ca3660046116c5565b610717565b6102386102dd36600461168e565b5f9081526005602052604090206001015490565b6103046102ff3660046116fe565b61073c565b005b604051601281526020016101f4565b6103046103233660046116fe565b610766565b6102386103e581565b61023861033f366004611728565b61079e565b61026d7f000000000000000000000000000000000000000000000000000000000000000081565b610238610379366004611751565b6001600160a01b03165f9081526020819052604090205490565b6103a66103a1366004611728565b6109e1565b604080519283526020830191909152016101f4565b6101e86103c93660046116fe565b610bcb565b610205610bf5565b6102385f81565b6101e86103eb366004611666565b610c04565b6102386103e881565b6102386104073660046116a5565b610c11565b61030461041a3660046116fe565b610da7565b61023860065481565b61023861043636600461176a565b6001600160a01b039182165f90815260016020908152604080832093909416825291909152205490565b6102387fb8cf4d34f28c31ca1f2dbc54a29ac1902689c7b9d3a10431f26623c580868d5a81565b5f61049182610dcb565b92915050565b6060600380546104a690611792565b80601f01602080910402602001604051908101604052809291908181526020018280546104d290611792565b801561051d5780601f106104f45761010080835404028352916020019161051d565b820191905f5260205f20905b81548152906001019060200180831161050057829003601f168201915b5050505050905090565b5f33610534818585610dff565b5060019392505050565b5f61049182600754600654610e0c565b5f610557610e82565b5f83116105985760405162461bcd60e51b815260206004820152600a60248201526916995c9bc81a5b9c1d5d60b21b60448201526064015b60405180910390fd5b5f6006541180156105aa57505f600754115b6105c65760405162461bcd60e51b815260040161058f906117c4565b6105d583600654600754610e0c565b90508181101561061b5760405162461bcd60e51b815260206004820152601160248201527014db1a5c1c1859d948195e18d959591959607a1b604482015260640161058f565b6106506001600160a01b037f000000000000000000000000000000000000000000000000000000000000000016333086610e9d565b6106846001600160a01b037f0000000000000000000000000000000000000000000000000000000000000000163383610ed3565b61068c610f08565b336001600160a01b03167ffa2dda1cc1b86e41239702756b13effbc1a092b5c57e3ad320fbe4f3b13fe2357f000000000000000000000000000000000000000000000000000000000000000085846040516106e9939291906117ea565b60405180910390a261049160015f8051602061189383398151915255565b5f61049182600654600754610e0c565b5f3361072485828561101c565b61072f85858561107f565b60019150505b9392505050565b5f82815260056020526040902060010154610756816110dc565b61076083836110e9565b50505050565b6001600160a01b038116331461078f5760405163334bd91960e11b815260040160405180910390fd5b610799828261117a565b505050565b5f6107a7610e82565b5f841180156107b557505f83115b6107f05760405162461bcd60e51b815260206004820152600c60248201526b5a65726f20616d6f756e747360a01b604482015260640161058f565b6108256001600160a01b037f000000000000000000000000000000000000000000000000000000000000000016333087610e9d565b61085a6001600160a01b037f000000000000000000000000000000000000000000000000000000000000000016333086610e9d565b5f61086460025490565b9050805f036108a1576103e861088261087d868861181f565b6111e5565b61088c9190611836565b915061089c61dead6103e8611253565b6108ec565b6006545f906108b0838861181f565b6108ba9190611849565b90505f60075483876108cc919061181f565b6108d69190611849565b90508082106108e557806108e7565b815b935050505b828210156109355760405162461bcd60e51b8152602060048201526016602482015275496e73756666696369656e74204c5020746f6b656e7360501b604482015260640161058f565b5f82116109755760405162461bcd60e51b815260206004820152600e60248201526d5a65726f204c5020746f6b656e7360901b604482015260640161058f565b61097f3383611253565b610987610f08565b604080518681526020810186905290810183905233907f64b83944e79c3ce8d4c297411de637c3e102d064677aac0c163976ebdcd6f50e9060600160405180910390a25061073560015f8051602061189383398151915255565b5f806109eb610e82565b5f8511610a2b5760405162461bcd60e51b815260206004820152600e60248201526d5a65726f204c5020746f6b656e7360901b604482015260640161058f565b5f610a3560025490565b90508060065487610a46919061181f565b610a509190611849565b92508060075487610a61919061181f565b610a6b9190611849565b915084831015610aae5760405162461bcd60e51b815260206004820152600e60248201526d496e73756666696369656e74204160901b604482015260640161058f565b83821015610aef5760405162461bcd60e51b815260206004820152600e60248201526d24b739bab33334b1b4b2b73a102160911b604482015260640161058f565b610af9338761128b565b610b2d6001600160a01b037f0000000000000000000000000000000000000000000000000000000000000000163385610ed3565b610b616001600160a01b037f0000000000000000000000000000000000000000000000000000000000000000163384610ed3565b610b69610f08565b604080518481526020810184905290810187905233907f1dc8bb69df2b8e91fbdcbfcf93d951b3f0000f085a95fe3f7946d6161439245d9060600160405180910390a250610bc360015f8051602061189383398151915255565b935093915050565b5f9182526005602090815260408084206001600160a01b0393909316845291905290205460ff1690565b6060600480546104a690611792565b5f3361053481858561107f565b5f610c1a610e82565b5f8311610c565760405162461bcd60e51b815260206004820152600a60248201526916995c9bc81a5b9c1d5d60b21b604482015260640161058f565b5f600654118015610c6857505f600754115b610c845760405162461bcd60e51b815260040161058f906117c4565b610c9383600754600654610e0c565b905081811015610cd95760405162461bcd60e51b815260206004820152601160248201527014db1a5c1c1859d948195e18d959591959607a1b604482015260640161058f565b610d0e6001600160a01b037f000000000000000000000000000000000000000000000000000000000000000016333086610e9d565b610d426001600160a01b037f0000000000000000000000000000000000000000000000000000000000000000163383610ed3565b610d4a610f08565b336001600160a01b03167ffa2dda1cc1b86e41239702756b13effbc1a092b5c57e3ad320fbe4f3b13fe2357f000000000000000000000000000000000000000000000000000000000000000085846040516106e9939291906117ea565b5f82815260056020526040902060010154610dc1816110dc565b610760838361117a565b5f6001600160e01b03198216637965db0b60e01b148061049157506301ffc9a760e01b6001600160e01b0319831614610491565b61079983838360016112bf565b5f8083118015610e1b57505f82115b610e375760405162461bcd60e51b815260040161058f906117c4565b5f610e446103e58661181f565b90505f610e51848361181f565b90505f82610e616103e88861181f565b610e6b9190611868565b9050610e778183611849565b979650505050505050565b610e8a611391565b60025f8051602061189383398151915255565b610eab8484848460016113c2565b61076057604051635274afe760e01b81526001600160a01b038516600482015260240161058f565b610ee0838383600161142f565b61079957604051635274afe760e01b81526001600160a01b038416600482015260240161058f565b6040516370a0823160e01b81523060048201527f00000000000000000000000000000000000000000000000000000000000000006001600160a01b0316906370a0823190602401602060405180830381865afa158015610f6a573d5f803e3d5ffd5b505050506040513d601f19601f82011682018060405250810190610f8e919061187b565b6006556040516370a0823160e01b81523060048201527f00000000000000000000000000000000000000000000000000000000000000006001600160a01b0316906370a0823190602401602060405180830381865afa158015610ff3573d5f803e3d5ffd5b505050506040513d601f19601f82011682018060405250810190611017919061187b565b600755565b6001600160a01b038381165f908152600160209081526040808320938616835292905220545f19811015610760578181101561107157828183604051637dc7a0d960e11b815260040161058f939291906117ea565b61076084848484035f6112bf565b6001600160a01b0383166110a857604051634b637e8f60e11b81525f600482015260240161058f565b6001600160a01b0382166110d15760405163ec442f0560e01b81525f600482015260240161058f565b610799838383611491565b6110e681336115a4565b50565b5f6110f48383610bcb565b611173575f8381526005602090815260408083206001600160a01b03861684529091529020805460ff1916600117905561112b3390565b6001600160a01b0316826001600160a01b0316847f2f8788117e7eff1d82e926ec794901d17c78024a50270940304540a733656f0d60405160405180910390a4506001610491565b505f610491565b5f6111858383610bcb565b15611173575f8381526005602090815260408083206001600160a01b0386168085529252808320805460ff1916905551339286917ff6391f5c32d9c69d2a47ea670b442974b53935d1edc7fd64eb21e047a839171b9190a4506001610491565b5f60038211156112445750805f6111fd600283611849565b611208906001611868565b90505b8181101561123e579050806002816112238186611849565b61122d9190611868565b6112379190611849565b905061120b565b50919050565b811561124e575060015b919050565b6001600160a01b03821661127c5760405163ec442f0560e01b81525f600482015260240161058f565b6112875f8383611491565b5050565b6001600160a01b0382166112b457604051634b637e8f60e11b81525f600482015260240161058f565b611287825f83611491565b6001600160a01b0384166112e85760405163e602df0560e01b81525f600482015260240161058f565b6001600160a01b03831661131157604051634a1406b160e11b81525f600482015260240161058f565b6001600160a01b038085165f908152600160209081526040808320938716835292905220829055801561076057826001600160a01b0316846001600160a01b03167f8c5be1e5ebec7d5bd14f71427d1e84f3dd0314c0f7b2291e5b200ac8c7c3b9258460405161138391815260200190565b60405180910390a350505050565b5f80516020611893833981519152546002036113c057604051633ee5aeb560e01b815260040160405180910390fd5b565b6040516323b872dd60e01b5f8181526001600160a01b038781166004528616602452604485905291602083606481808c5af1925060015f5114831661141e578383151615611412573d5f823e3d81fd5b5f883b113d1516831692505b604052505f60605295945050505050565b60405163a9059cbb60e01b5f8181526001600160a01b038616600452602485905291602083604481808b5af1925060015f51148316611485578383151615611479573d5f823e3d81fd5b5f873b113d1516831692505b60405250949350505050565b6001600160a01b0383166114bb578060025f8282546114b09190611868565b909155506115189050565b6001600160a01b0383165f90815260208190526040902054818110156114fa5783818360405163391434e360e21b815260040161058f939291906117ea565b6001600160a01b0384165f9081526020819052604090209082900390555b6001600160a01b03821661153457600280548290039055611552565b6001600160a01b0382165f9081526020819052604090208054820190555b816001600160a01b0316836001600160a01b03167fddf252ad1be2c89b69c2b068fc378daa952ba7f163c4a11628f55a4df523b3ef8360405161159791815260200190565b60405180910390a3505050565b6115ae8282610bcb565b6112875760405163e2517d3f60e01b81526001600160a01b03821660048201526024810183905260440161058f565b5f602082840312156115ed575f80fd5b81356001600160e01b031981168114610735575f80fd5b5f602080835283518060208501525f5b8181101561163057858101830151858201604001528201611614565b505f604082860101526040601f19601f8301168501019250505092915050565b80356001600160a01b038116811461124e575f80fd5b5f8060408385031215611677575f80fd5b61168083611650565b946020939093013593505050565b5f6020828403121561169e575f80fd5b5035919050565b5f80604083850312156116b6575f80fd5b50508035926020909101359150565b5f805f606084860312156116d7575f80fd5b6116e084611650565b92506116ee60208501611650565b9150604084013590509250925092565b5f806040838503121561170f575f80fd5b8235915061171f60208401611650565b90509250929050565b5f805f6060848603121561173a575f80fd5b505081359360208301359350604090920135919050565b5f60208284031215611761575f80fd5b61073582611650565b5f806040838503121561177b575f80fd5b61178483611650565b915061171f60208401611650565b600181811c908216806117a657607f821691505b60208210810361123e57634e487b7160e01b5f52602260045260245ffd5b6020808252600c908201526b4e6f206c697175696469747960a01b604082015260600190565b6001600160a01b039390931683526020830191909152604082015260600190565b634e487b7160e01b5f52601160045260245ffd5b80820281158282048414176104915761049161180b565b818103818111156104915761049161180b565b5f8261186357634e487b7160e01b5f52601260045260245ffd5b500490565b808201808211156104915761049161180b565b5f6020828403121561188b575f80fd5b505191905056fe9b779b17422d0df92223018b32b4d1fa46e071723d6817e2486d003becc55f00a26469706673582212209bae7fae14208eb3a40672964a777778d8f26a63325b0b4e51b1730bbe37d24764736f6c63430008180033","linkReferences":{}},"methodIdentifiers":{"AMM_ADMIN_ROLE()":"ee72144a","DEFAULT_ADMIN_ROLE()":"a217fddf","FEE_DENOMINATOR()":"d73792a9","FEE_NUMERATOR()":"41cd47bf","MINIMUM_LIQUIDITY()":"ba9a7a56","addLiquidity(uint256,uint256,uint256)":"422f1043","allowance(address,address)":"dd62ed3e","approve(address,uint256)":"095ea7b3","balanceOf(address)":"70a08231","decimals()":"313ce567","getAmountOutAforB(uint256)":"234e85c6","getAmountOutBforA(uint256)":"0e6a22b0","getRoleAdmin(bytes32)":"248a9ca3","grantRole(bytes32,address)":"2f2ff15d","hasRole(bytes32,address)":"91d14854","name()":"06fdde03","removeLiquidity(uint256,uint256,uint256)":"857620e1","renounceRole(bytes32,address)":"36568abe","reserveA()":"dc5fa6c5","reserveB()":"19e36f3b","revokeRole(bytes32,address)":"d547741f","supportsInterface(bytes4)":"01ffc9a7","swapAforB(uint256,uint256)":"140e6247","swapBforA(uint256,uint256)":"c915cc24","symbol()":"95d89b41","tokenA()":"0fc63d10","tokenB()":"5f64b55b","totalSupply()":"18160ddd","transfer(address,uint256)":"a9059cbb","transferFrom(address,address,uint256)":"23b872dd"},"id":15}