{"abi":[{"type":"constructor","inputs":[{"name":"admin","type":"address","internalType":"address"}],"stateMutability":"nonpayable"},{"type":"function","name":"DEFAULT_ADMIN_ROLE","inputs":[],"outputs":[{"name":"","type":"bytes32","internalType":"bytes32"}],"stateMutability":"view"},{"type":"function","name":"MINTER_ROLE","inputs":[],"outputs":[{"name":"","type":"bytes32","internalType":"bytes32"}],"stateMutability":"view"},{"type":"function","name":"balanceOf","inputs":[{"name":"account","type":"address","internalType":"address"},{"name":"id","type":"uint256","internalType":"uint256"}],"outputs":[{"name":"","type":"uint256","internalType":"uint256"}],"stateMutability":"view"},{"type":"function","name":"balanceOfBatch","inputs":[{"name":"accounts","type":"address[]","internalType":"address[]"},{"name":"ids","type":"uint256[]","internalType":"uint256[]"}],"outputs":[{"name":"","type":"uint256[]","internalType":"uint256[]"}],"stateMutability":"view"},{"type":"function","name":"burn","inputs":[{"name":"account","type":"address","internalType":"address"},{"name":"id","type":"uint256","internalType":"uint256"},{"name":"value","type":"uint256","internalType":"uint256"}],"outputs":[],"stateMutability":"nonpayable"},{"type":"function","name":"burnBatch","inputs":[{"name":"account","type":"address","internalType":"address"},{"name":"ids","type":"uint256[]","internalType":"uint256[]"},{"name":"values","type":"uint256[]","internalType":"uint256[]"}],"outputs":[],"stateMutability":"nonpayable"},{"type":"function","name":"createSkinType","inputs":[{"name":"name","type":"string","internalType":"string"},{"name":"rarity","type":"uint8","internalType":"enum SkinToken.Rarity"},{"name":"maxSupply","type":"uint256","internalType":"uint256"}],"outputs":[{"name":"","type":"uint256","internalType":"uint256"}],"stateMutability":"nonpayable"},{"type":"function","name":"exists","inputs":[{"name":"id","type":"uint256","internalType":"uint256"}],"outputs":[{"name":"","type":"bool","internalType":"bool"}],"stateMutability":"view"},{"type":"function","name":"getRarity","inputs":[{"name":"skinId","type":"uint256","internalType":"uint256"}],"outputs":[{"name":"","type":"uint8","internalType":"enum SkinToken.Rarity"}],"stateMutability":"view"},{"type":"function","name":"getRoleAdmin","inputs":[{"name":"role","type":"bytes32","internalType":"bytes32"}],"outputs":[{"name":"","type":"bytes32","internalType":"bytes32"}],"stateMutability":"view"},{"type":"function","name":"getSkinName","inputs":[{"name":"skinId","type":"uint256","internalType":"uint256"}],"outputs":[{"name":"","type":"string","internalType":"string"}],"stateMutability":"view"},{"type":"function","name":"grantRole","inputs":[{"name":"role","type":"bytes32","internalType":"bytes32"},{"name":"account","type":"address","internalType":"address"}],"outputs":[],"stateMutability":"nonpayable"},{"type":"function","name":"hasRole","inputs":[{"name":"role","type":"bytes32","internalType":"bytes32"},{"name":"account","type":"address","internalType":"address"}],"outputs":[{"name":"","type":"bool","internalType":"bool"}],"stateMutability":"view"},{"type":"function","name":"isApprovedForAll","inputs":[{"name":"account","type":"address","internalType":"address"},{"name":"operator","type":"address","internalType":"address"}],"outputs":[{"name":"","type":"bool","internalType":"bool"}],"stateMutability":"view"},{"type":"function","name":"mint","inputs":[{"name":"to","type":"address","internalType":"address"},{"name":"skinId","type":"uint256","internalType":"uint256"},{"name":"amount","type":"uint256","internalType":"uint256"}],"outputs":[],"stateMutability":"nonpayable"},{"type":"function","name":"nextSkinId","inputs":[],"outputs":[{"name":"","type":"uint256","internalType":"uint256"}],"stateMutability":"view"},{"type":"function","name":"renounceRole","inputs":[{"name":"role","type":"bytes32","internalType":"bytes32"},{"name":"callerConfirmation","type":"address","internalType":"address"}],"outputs":[],"stateMutability":"nonpayable"},{"type":"function","name":"revokeRole","inputs":[{"name":"role","type":"bytes32","internalType":"bytes32"},{"name":"account","type":"address","internalType":"address"}],"outputs":[],"stateMutability":"nonpayable"},{"type":"function","name":"safeBatchTransferFrom","inputs":[{"name":"from","type":"address","internalType":"address"},{"name":"to","type":"address","internalType":"address"},{"name":"ids","type":"uint256[]","internalType":"uint256[]"},{"name":"values","type":"uint256[]","internalType":"uint256[]"},{"name":"data","type":"bytes","internalType":"bytes"}],"outputs":[],"stateMutability":"nonpayable"},{"type":"function","name":"safeTransferFrom","inputs":[{"name":"from","type":"address","internalType":"address"},{"name":"to","type":"address","internalType":"address"},{"name":"id","type":"uint256","internalType":"uint256"},{"name":"value","type":"uint256","internalType":"uint256"},{"name":"data","type":"bytes","internalType":"bytes"}],"outputs":[],"stateMutability":"nonpayable"},{"type":"function","name":"setApprovalForAll","inputs":[{"name":"operator","type":"address","internalType":"address"},{"name":"approved","type":"bool","internalType":"bool"}],"outputs":[],"stateMutability":"nonpayable"},{"type":"function","name":"skins","inputs":[{"name":"","type":"uint256","internalType":"uint256"}],"outputs":[{"name":"name","type":"string","internalType":"string"},{"name":"rarity","type":"uint8","internalType":"enum SkinToken.Rarity"},{"name":"maxSupply","type":"uint256","internalType":"uint256"},{"name":"exists","type":"bool","internalType":"bool"}],"stateMutability":"view"},{"type":"function","name":"supportsInterface","inputs":[{"name":"interfaceId","type":"bytes4","internalType":"bytes4"}],"outputs":[{"name":"","type":"bool","internalType":"bool"}],"stateMutability":"view"},{"type":"function","name":"totalSupply","inputs":[],"outputs":[{"name":"","type":"uint256","internalType":"uint256"}],"stateMutability":"view"},{"type":"function","name":"totalSupply","inputs":[{"name":"id","type":"uint256","internalType":"uint256"}],"outputs":[{"name":"","type":"uint256","internalType":"uint256"}],"stateMutability":"view"},{"type":"function","name":"uri","inputs":[{"name":"","type":"uint256","internalType":"uint256"}],"outputs":[{"name":"","type":"string","internalType":"string"}],"stateMutability":"view"},{"type":"event","name":"ApprovalForAll","inputs":[{"name":"account","type":"address","indexed":true,"internalType":"address"},{"name":"operator","type":"address","indexed":true,"internalType":"address"},{"name":"approved","type":"bool","indexed":false,"internalType":"bool"}],"anonymous":false},{"type":"event","name":"RoleAdminChanged","inputs":[{"name":"role","type":"bytes32","indexed":true,"internalType":"bytes32"},{"name":"previousAdminRole","type":"bytes32","indexed":true,"internalType":"bytes32"},{"name":"newAdminRole","type":"bytes32","indexed":true,"internalType":"bytes32"}],"anonymous":false},{"type":"event","name":"RoleGranted","inputs":[{"name":"role","type":"bytes32","indexed":true,"internalType":"bytes32"},{"name":"account","type":"address","indexed":true,"internalType":"address"},{"name":"sender","type":"address","indexed":true,"internalType":"address"}],"anonymous":false},{"type":"event","name":"RoleRevoked","inputs":[{"name":"role","type":"bytes32","indexed":true,"internalType":"bytes32"},{"name":"account","type":"address","indexed":true,"internalType":"address"},{"name":"sender","type":"address","indexed":true,"internalType":"address"}],"anonymous":false},{"type":"event","name":"SkinMinted","inputs":[{"name":"to","type":"address","indexed":true,"internalType":"address"},{"name":"skinId","type":"uint256","indexed":true,"internalType":"uint256"},{"name":"amount","type":"uint256","indexed":false,"internalType":"uint256"}],"anonymous":false},{"type":"event","name":"SkinTypeCreated","inputs":[{"name":"skinId","type":"uint256","indexed":true,"internalType":"uint256"},{"name":"name","type":"string","indexed":false,"internalType":"string"},{"name":"rarity","type":"uint8","indexed":false,"internalType":"enum SkinToken.Rarity"},{"name":"maxSupply","type":"uint256","indexed":false,"internalType":"uint256"}],"anonymous":false},{"type":"event","name":"TransferBatch","inputs":[{"name":"operator","type":"address","indexed":true,"internalType":"address"},{"name":"from","type":"address","indexed":true,"internalType":"address"},{"name":"to","type":"address","indexed":true,"internalType":"address"},{"name":"ids","type":"uint256[]","indexed":false,"internalType":"uint256[]"},{"name":"values","type":"uint256[]","indexed":false,"internalType":"uint256[]"}],"anonymous":false},{"type":"event","name":"TransferSingle","inputs":[{"name":"operator","type":"address","indexed":true,"internalType":"address"},{"name":"from","type":"address","indexed":true,"internalType":"address"},{"name":"to","type":"address","indexed":true,"internalType":"address"},{"name":"id","type":"uint256","indexed":false,"internalType":"uint256"},{"name":"value","type":"uint256","indexed":false,"internalType":"uint256"}],"anonymous":false},{"type":"event","name":"URI","inputs":[{"name":"value","type":"string","indexed":false,"internalType":"string"},{"name":"id","type":"uint256","indexed":true,"internalType":"uint256"}],"anonymous":false},{"type":"error","name":"AccessControlBadConfirmation","inputs":[]},{"type":"error","name":"AccessControlUnauthorizedAccount","inputs":[{"name":"account","type":"address","internalType":"address"},{"name":"neededRole","type":"bytes32","internalType":"bytes32"}]},{"type":"error","name":"ERC1155InsufficientBalance","inputs":[{"name":"sender","type":"address","internalType":"address"},{"name":"balance","type":"uint256","internalType":"uint256"},{"name":"needed","type":"uint256","internalType":"uint256"},{"name":"tokenId","type":"uint256","internalType":"uint256"}]},{"type":"error","name":"ERC1155InvalidApprover","inputs":[{"name":"approver","type":"address","internalType":"address"}]},{"type":"error","name":"ERC1155InvalidArrayLength","inputs":[{"name":"idsLength","type":"uint256","internalType":"uint256"},{"name":"valuesLength","type":"uint256","internalType":"uint256"}]},{"type":"error","name":"ERC1155InvalidOperator","inputs":[{"name":"operator","type":"address","internalType":"address"}]},{"type":"error","name":"ERC1155InvalidReceiver","inputs":[{"name":"receiver","type":"address","internalType":"address"}]},{"type":"error","name":"ERC1155InvalidSender","inputs":[{"name":"sender","type":"address","internalType":"address"}]},{"type":"error","name":"ERC1155MissingApprovalForAll","inputs":[{"name":"operator","type":"address","internalType":"address"},{"name":"owner","type":"address","internalType":"address"}]}],"bytecode":{"object":"0x608060405234801562000010575f80fd5b506040516200244e3803806200244e833981016040819052620000339162000375565b60408051602081019091525f81526200004c81620001ab565b50620000595f82620001bd565b50620000867f9f2df0fed2c77648de5860a4cc508cd0818c85b8b8a1ab4ceeef8d981c8956a682620001bd565b5060408051808201909152600f81526e414b2d3437207c205265646c696e6560881b6020820152620000bc905f6127106200026d565b50604080518082019091526011815270415750207c20447261676f6e204c6f726560781b6020820152620000f59060026101f46200026d565b5060408051808201909152600b81526a134d104d081f08121bdddb60aa1b6020820152620001289060026101f46200026d565b5060408051808201909152601781527f476c6f636b207c20576174657220456c656d656e74616c00000000000000000060208201526200016d906001610bb86200026d565b5060408051808201909152600e81526d2aa9a8103e102732b796a737b4b960911b6020820152620001a3906001610bb86200026d565b5050620005bc565b6002620001b9828262000442565b5050565b5f8281526005602090815260408083206001600160a01b038516845290915281205460ff1662000264575f8381526005602090815260408083206001600160a01b03861684529091529020805460ff191660011790556200021b3390565b6001600160a01b0316826001600160a01b0316847f2f8788117e7eff1d82e926ec794901d17c78024a50270940304540a733656f0d60405160405180910390a450600162000267565b505f5b92915050565b600780545f918291908262000282836200050e565b9190505590506040518060800160405280868152602001856002811115620002ae57620002ae62000533565b8152602080820186905260016040928301525f84815260069091522081518190620002da908262000442565b50602082015160018083018054909160ff199091169083600281111562000305576200030562000533565b021790555060408281015160028301556060909201516003909101805460ff19169115159190911790555181907f5cb90a08865de5c82e68bc3c3ef90a472bce24e6891900a61938968c7320344390620003659088908890889062000547565b60405180910390a2949350505050565b5f6020828403121562000386575f80fd5b81516001600160a01b03811681146200039d575f80fd5b9392505050565b634e487b7160e01b5f52604160045260245ffd5b600181811c90821680620003cd57607f821691505b602082108103620003ec57634e487b7160e01b5f52602260045260245ffd5b50919050565b601f8211156200043d57805f5260205f20601f840160051c81016020851015620004195750805b601f840160051c820191505b818110156200043a575f815560010162000425565b50505b505050565b81516001600160401b038111156200045e576200045e620003a4565b62000476816200046f8454620003b8565b84620003f2565b602080601f831160018114620004ac575f8415620004945750858301515b5f19600386901b1c1916600185901b17855562000506565b5f85815260208120601f198616915b82811015620004dc57888601518255948401946001909101908401620004bb565b5085821015620004fa57878501515f19600388901b60f8161c191681555b505060018460011b0185555b505050505050565b5f600182016200052c57634e487b7160e01b5f52601160045260245ffd5b5060010190565b634e487b7160e01b5f52602160045260245ffd5b606081525f84518060608401525f5b8181101562000575576020818801810151608086840101520162000556565b505f608082850101526080601f19601f83011684010191505060038410620005ab57634e487b7160e01b5f52602160045260245ffd5b602082019390935260400152919050565b611e8480620005ca5f395ff3fe608060405234801561000f575f80fd5b5060043610610186575f3560e01c80634f558e79116100d9578063b237d97911610093578063d547741f1161006e578063d547741f146103a4578063e985e9c5146103b7578063f242432a146103f2578063f5298aca14610405575f80fd5b8063b237d9791461034b578063bd85b0391461035e578063d53913931461037d575f80fd5b80634f558e79146102d75780636b20c454146102f8578063906300cc1461030b57806391d148541461031e578063a217fddf14610331578063a22cb46514610338575f80fd5b80632c9ea1b7116101445780632f2ff15d1161011f5780632f2ff15d1461027157806336568abe1461028457806348758697146102975780634e1273f4146102b7575f80fd5b80632c9ea1b7146102325780632db2ede51461023b5780632eb2c2d61461025e575f80fd5b8062fdd58e1461018a57806301ffc9a7146101b05780630e89341c146101d3578063156e29f6146101f357806318160ddd14610208578063248a9ca314610210575b5f80fd5b61019d610198366004611541565b610418565b6040519081526020015b60405180910390f35b6101c36101be36600461157e565b61043f565b60405190151581526020016101a7565b6101e66101e13660046115a0565b610449565b6040516101a791906115fa565b61020661020136600461160c565b6104db565b005b60045461019d565b61019d61021e3660046115a0565b5f9081526005602052604090206001015490565b61019d60075481565b61024e6102493660046115a0565b61060d565b6040516101a79493929190611670565b61020661026c3660046117e8565b6106c1565b61020661027f36600461188b565b6106e0565b61020661029236600461188b565b61070a565b6102aa6102a53660046115a0565b610742565b6040516101a791906118b5565b6102ca6102c53660046118c3565b61078a565b6040516101a791906119b7565b6101c36102e53660046115a0565b5f90815260036020526040902054151590565b6102066103063660046119c9565b610855565b61019d610319366004611a38565b6108b4565b6101c361032c36600461188b565b61090b565b61019d5f81565b610206610346366004611abd565b610935565b6101e66103593660046115a0565b610944565b61019d61036c3660046115a0565b5f9081526003602052604090205490565b61019d7f9f2df0fed2c77648de5860a4cc508cd0818c85b8b8a1ab4ceeef8d981c8956a681565b6102066103b236600461188b565b61098f565b6101c36103c5366004611af6565b6001600160a01b039182165f90815260016020908152604080832093909416825291909152205460ff1690565b610206610400366004611b1e565b6109b3565b61020661041336600461160c565b6109c9565b5f818152602081815260408083206001600160a01b03861684529091529020545b92915050565b5f610439826109ff565b60606002805461045890611b7e565b80601f016020809104026020016040519081016040528092919081815260200182805461048490611b7e565b80156104cf5780601f106104a6576101008083540402835291602001916104cf565b820191905f5260205f20905b8154815290600101906020018083116104b257829003601f168201915b50505050509050919050565b7f9f2df0fed2c77648de5860a4cc508cd0818c85b8b8a1ab4ceeef8d981c8956a661050581610a23565b5f8381526006602052604090206003015460ff1661053e5760405162461bcd60e51b815260040161053590611bb6565b60405180910390fd5b5f83815260066020908152604080832060020154600390925290912054610566908490611bf7565b11156105a95760405162461bcd60e51b815260206004820152601260248201527145786365656473206d617820737570706c7960701b6044820152606401610535565b6105c384848460405180602001604052805f815250610a30565b82846001600160a01b03167fce272563421aed8f2bd5ae3401a40ba041d9c6ebf8f8a576bcbe86d42b3d231f846040516105ff91815260200190565b60405180910390a350505050565b60066020525f908152604090208054819061062790611b7e565b80601f016020809104026020016040519081016040528092919081815260200182805461065390611b7e565b801561069e5780601f106106755761010080835404028352916020019161069e565b820191905f5260205f20905b81548152906001019060200180831161068157829003601f168201915b5050505060018301546002840154600390940154929360ff918216939092501684565b6106cc335b86610a94565b6106d98585858585610aee565b5050505050565b5f828152600560205260409020600101546106fa81610a23565b6107048383610b4e565b50505050565b6001600160a01b03811633146107335760405163334bd91960e11b815260040160405180910390fd5b61073d8282610bdf565b505050565b5f8181526006602052604081206003015460ff166107725760405162461bcd60e51b815260040161053590611bb6565b505f9081526006602052604090206001015460ff1690565b606081518351146107bb5781518351604051635b05999160e01b815260048101929092526024820152604401610535565b5f835167ffffffffffffffff8111156107d6576107d66116a8565b6040519080825280602002602001820160405280156107ff578160200160208202803683370190505b5090505f5b845181101561084d5760208082028601015161082890602080840287010151610418565b82828151811061083a5761083a611c0a565b6020908102919091010152600101610804565b509392505050565b6001600160a01b0383163314801590610875575061087383336103c5565b155b156108a957335b60405163711bec9160e11b81526001600160a01b0391821660048201529084166024820152604401610535565b61073d838383610c4a565b5f806108bf81610a23565b61090186868080601f0160208091040260200160405190810160405280939291908181526020018383808284375f92019190915250889250879150610c8f9050565b9695505050505050565b5f9182526005602090815260408084206001600160a01b0393909316845291905290205460ff1690565b610940338383610d8b565b5050565b5f8181526006602052604090206003015460609060ff166109775760405162461bcd60e51b815260040161053590611bb6565b5f828152600660205260409020805461045890611b7e565b5f828152600560205260409020600101546109a981610a23565b6107048383610bdf565b6109bc336106c6565b6106d98585858585610e48565b6001600160a01b03831633148015906109e957506109e783336103c5565b155b156109f4573361087c565b61073d838383610ed5565b5f6001600160e01b03198216637965db0b60e01b1480610439575061043982610f3c565b610a2d8133610f8b565b50565b6001600160a01b038416610a5957604051632bfa23e760e11b81525f6004820152602401610535565b60408051600180825260208201869052818301908152606082018590526080820190925290610a8c5f8784848784610fc4565b505050505050565b816001600160a01b0316816001600160a01b031614158015610abd5750610abb81836103c5565b155b156109405760405163711bec9160e11b81526001600160a01b03808416600483015282166024820152604401610535565b6001600160a01b038416610b1757604051632bfa23e760e11b81525f6004820152602401610535565b6001600160a01b038516610b3f57604051626a0d4560e21b81525f6004820152602401610535565b6106d985858585856001610fc4565b5f610b59838361090b565b610bd8575f8381526005602090815260408083206001600160a01b03861684529091529020805460ff19166001179055610b903390565b6001600160a01b0316826001600160a01b0316847f2f8788117e7eff1d82e926ec794901d17c78024a50270940304540a733656f0d60405160405180910390a4506001610439565b505f610439565b5f610bea838361090b565b15610bd8575f8381526005602090815260408083206001600160a01b0386168085529252808320805460ff1916905551339286917ff6391f5c32d9c69d2a47ea670b442974b53935d1edc7fd64eb21e047a839171b9190a4506001610439565b6001600160a01b038316610c7257604051626a0d4560e21b81525f6004820152602401610535565b61073d835f848460405180602001604052805f8152506001610fc4565b600780545f9182919082610ca283611c1e565b9190505590506040518060800160405280868152602001856002811115610ccb57610ccb61163c565b8152602080820186905260016040928301525f84815260069091522081518190610cf59082611c7a565b50602082015160018083018054909160ff1990911690836002811115610d1d57610d1d61163c565b021790555060408281015160028301556060909201516003909101805460ff19169115159190911790555181907f5cb90a08865de5c82e68bc3c3ef90a472bce24e6891900a61938968c7320344390610d7b90889088908890611d36565b60405180910390a2949350505050565b6001600160a01b038316610db457604051631f18c42760e11b81525f6004820152602401610535565b6001600160a01b038216610ddc5760405162ced3e160e81b81525f6004820152602401610535565b6001600160a01b038381165f81815260016020908152604080832094871680845294825291829020805460ff191686151590811790915591519182527f17307eab39ab6107e8899845ad3d59bd9653f200f220920489ca2b5937696c31910160405180910390a3505050565b6001600160a01b038416610e7157604051632bfa23e760e11b81525f6004820152602401610535565b6001600160a01b038516610e9957604051626a0d4560e21b81525f6004820152602401610535565b60408051600180825260208201869052818301908152606082018590526080820190925290610ecc87878484875f610fc4565b50505050505050565b6001600160a01b038316610efd57604051626a0d4560e21b81525f6004820152602401610535565b604080516001808252602082018590528183019081526060820184905260a082019092525f608082018181529192916106d99187918590859083610fc4565b5f6001600160e01b03198216636cdb3d1360e11b1480610f6c57506001600160e01b031982166303a24d0760e21b145b8061043957506301ffc9a760e01b6001600160e01b0319831614610439565b610f95828261090b565b6109405760405163e2517d3f60e01b81526001600160a01b038216600482015260248101839052604401610535565b610fd08686868661101c565b6001600160a01b03851615610a8c57338115610ff957610ff4818888888888611028565b610ecc565b60208581015190850151611011838a8a85858a611149565b505050505050505050565b61070484848484611230565b6001600160a01b0384163b15610a8c5760405163bc197c8160e01b81526001600160a01b0385169063bc197c819061106c9089908990889088908890600401611d65565b6020604051808303815f875af19250505080156110a6575060408051601f3d908101601f191682019092526110a391810190611dc2565b60015b61110d573d8080156110d3576040519150601f19603f3d011682016040523d82523d5f602084013e6110d8565b606091505b5080515f0361110557604051632bfa23e760e11b81526001600160a01b0386166004820152602401610535565b805160208201fd5b6001600160e01b0319811663bc197c8160e01b14610ecc57604051632bfa23e760e11b81526001600160a01b0386166004820152602401610535565b6001600160a01b0384163b15610a8c5760405163f23a6e6160e01b81526001600160a01b0385169063f23a6e619061118d9089908990889088908890600401611ddd565b6020604051808303815f875af19250505080156111c7575060408051601f3d908101601f191682019092526111c491810190611dc2565b60015b6111f4573d8080156110d3576040519150601f19603f3d011682016040523d82523d5f602084013e6110d8565b6001600160e01b0319811663f23a6e6160e01b14610ecc57604051632bfa23e760e11b81526001600160a01b0386166004820152602401610535565b61123c84848484611317565b6001600160a01b0384166112b9575f805b83518110156112a05760208181028481018201519086018201515f908152600390925260408220805491928392611285908490611bf7565b9091555061129590508184611bf7565b92505060010161124d565b508060045f8282546112b29190611bf7565b9091555050505b6001600160a01b038316610704575f805b83518110156113065760208181028481018201519086018201515f908152600390925260409091208054829003905591909101906001016112ca565b506004805491909103905550505050565b80518251146113465781518151604051635b05999160e01b815260048101929092526024820152604401610535565b335f5b8351811015611448576020818102858101820151908501909101516001600160a01b038816156113fa575f828152602081815260408083206001600160a01b038c168452909152902054818110156113d4576040516303dee4c560e01b81526001600160a01b038a166004820152602481018290526044810183905260648101849052608401610535565b5f838152602081815260408083206001600160a01b038d16845290915290209082900390555b6001600160a01b0387161561143e575f828152602081815260408083206001600160a01b038b16845290915281208054839290611438908490611bf7565b90915550505b5050600101611349565b5082516001036114c85760208301515f906020840151909150856001600160a01b0316876001600160a01b0316846001600160a01b03167fc3d58168c5ae7397731d063d5bbf3d657854427343f4c083240f7aacaa2d0f6285856040516114b9929190918252602082015260400190565b60405180910390a450506106d9565b836001600160a01b0316856001600160a01b0316826001600160a01b03167f4a39dc06d4c0dbc64b70af90fd698a233a518aa5d07e595d983b8c0526c8f7fb8686604051611517929190611e21565b60405180910390a45050505050565b80356001600160a01b038116811461153c575f80fd5b919050565b5f8060408385031215611552575f80fd5b61155b83611526565b946020939093013593505050565b6001600160e01b031981168114610a2d575f80fd5b5f6020828403121561158e575f80fd5b813561159981611569565b9392505050565b5f602082840312156115b0575f80fd5b5035919050565b5f81518084525f5b818110156115db576020818501810151868301820152016115bf565b505f602082860101526020601f19601f83011685010191505092915050565b602081525f61159960208301846115b7565b5f805f6060848603121561161e575f80fd5b61162784611526565b95602085013595506040909401359392505050565b634e487b7160e01b5f52602160045260245ffd5b6003811061166c57634e487b7160e01b5f52602160045260245ffd5b9052565b608081525f61168260808301876115b7565b90506116916020830186611650565b836040830152821515606083015295945050505050565b634e487b7160e01b5f52604160045260245ffd5b604051601f8201601f1916810167ffffffffffffffff811182821017156116e5576116e56116a8565b604052919050565b5f67ffffffffffffffff821115611706576117066116a8565b5060051b60200190565b5f82601f83011261171f575f80fd5b8135602061173461172f836116ed565b6116bc565b8083825260208201915060208460051b870101935086841115611755575f80fd5b602086015b84811015611771578035835291830191830161175a565b509695505050505050565b5f82601f83011261178b575f80fd5b813567ffffffffffffffff8111156117a5576117a56116a8565b6117b8601f8201601f19166020016116bc565b8181528460208386010111156117cc575f80fd5b816020850160208301375f918101602001919091529392505050565b5f805f805f60a086880312156117fc575f80fd5b61180586611526565b945061181360208701611526565b9350604086013567ffffffffffffffff8082111561182f575f80fd5b61183b89838a01611710565b94506060880135915080821115611850575f80fd5b61185c89838a01611710565b93506080880135915080821115611871575f80fd5b5061187e8882890161177c565b9150509295509295909350565b5f806040838503121561189c575f80fd5b823591506118ac60208401611526565b90509250929050565b602081016104398284611650565b5f80604083850312156118d4575f80fd5b823567ffffffffffffffff808211156118eb575f80fd5b818501915085601f8301126118fe575f80fd5b8135602061190e61172f836116ed565b82815260059290921b8401810191818101908984111561192c575f80fd5b948201945b838610156119515761194286611526565b82529482019490820190611931565b96505086013592505080821115611966575f80fd5b5061197385828601611710565b9150509250929050565b5f815180845260208085019450602084015f5b838110156119ac57815187529582019590820190600101611990565b509495945050505050565b602081525f611599602083018461197d565b5f805f606084860312156119db575f80fd5b6119e484611526565b9250602084013567ffffffffffffffff80821115611a00575f80fd5b611a0c87838801611710565b93506040860135915080821115611a21575f80fd5b50611a2e86828701611710565b9150509250925092565b5f805f8060608587031215611a4b575f80fd5b843567ffffffffffffffff80821115611a62575f80fd5b818701915087601f830112611a75575f80fd5b813581811115611a83575f80fd5b886020828501011115611a94575f80fd5b6020928301965094505085013560038110611aad575f80fd5b9396929550929360400135925050565b5f8060408385031215611ace575f80fd5b611ad783611526565b915060208301358015158114611aeb575f80fd5b809150509250929050565b5f8060408385031215611b07575f80fd5b611b1083611526565b91506118ac60208401611526565b5f805f805f60a08688031215611b32575f80fd5b611b3b86611526565b9450611b4960208701611526565b93506040860135925060608601359150608086013567ffffffffffffffff811115611b72575f80fd5b61187e8882890161177c565b600181811c90821680611b9257607f821691505b602082108103611bb057634e487b7160e01b5f52602260045260245ffd5b50919050565b60208082526013908201527214dada5b88191bd95cc81b9bdd08195e1a5cdd606a1b604082015260600190565b634e487b7160e01b5f52601160045260245ffd5b8082018082111561043957610439611be3565b634e487b7160e01b5f52603260045260245ffd5b5f60018201611c2f57611c2f611be3565b5060010190565b601f82111561073d57805f5260205f20601f840160051c81016020851015611c5b5750805b601f840160051c820191505b818110156106d9575f8155600101611c67565b815167ffffffffffffffff811115611c9457611c946116a8565b611ca881611ca28454611b7e565b84611c36565b602080601f831160018114611cdb575f8415611cc45750858301515b5f19600386901b1c1916600185901b178555610a8c565b5f85815260208120601f198616915b82811015611d0957888601518255948401946001909101908401611cea565b5085821015611d2657878501515f19600388901b60f8161c191681555b5050505050600190811b01905550565b606081525f611d4860608301866115b7565b9050611d576020830185611650565b826040830152949350505050565b6001600160a01b0386811682528516602082015260a0604082018190525f90611d909083018661197d565b8281036060840152611da2818661197d565b90508281036080840152611db681856115b7565b98975050505050505050565b5f60208284031215611dd2575f80fd5b815161159981611569565b6001600160a01b03868116825285166020820152604081018490526060810183905260a0608082018190525f90611e16908301846115b7565b979650505050505050565b604081525f611e33604083018561197d565b8281036020840152611e45818561197d565b9594505050505056fea26469706673582212208f5cb657b5100ccb582b1dd6d0e6c835c73cd5ada38124073152df543ef84bcb64736f6c63430008180033","linkReferences":{}},"methodIdentifiers":{"DEFAULT_ADMIN_ROLE()":"a217fddf","MINTER_ROLE()":"d5391393","balanceOf(address,uint256)":"00fdd58e","balanceOfBatch(address[],uint256[])":"4e1273f4","burn(address,uint256,uint256)":"f5298aca","burnBatch(address,uint256[],uint256[])":"6b20c454","createSkinType(string,uint8,uint256)":"906300cc","exists(uint256)":"4f558e79","getRarity(uint256)":"48758697","getRoleAdmin(bytes32)":"248a9ca3","getSkinName(uint256)":"b237d979","grantRole(bytes32,address)":"2f2ff15d","hasRole(bytes32,address)":"91d14854","isApprovedForAll(address,address)":"e985e9c5","mint(address,uint256,uint256)":"156e29f6","nextSkinId()":"2c9ea1b7","renounceRole(bytes32,address)":"36568abe","revokeRole(bytes32,address)":"d547741f","safeBatchTransferFrom(address,address,uint256[],uint256[],bytes)":"2eb2c2d6","safeTransferFrom(address,address,uint256,uint256,bytes)":"f242432a","setApprovalForAll(address,bool)":"a22cb465","skins(uint256)":"2db2ede5","supportsInterface(bytes4)":"01ffc9a7","totalSupply()":"18160ddd","totalSupply(uint256)":"bd85b039","uri(uint256)":"0e89341c"},"id":20}